Number  Binary                                        Hexadecimal
6980368 0b11010101000001100010000                         6A8310
5517055 0b10101000010111011111111                         542EFF
1336159 0b101000110001101011111                           14635F
6750185 0b11001101111111111101001                         66FFE9
1771937 0b110110000100110100001                           1B09A1
360952  0b1011000000111111000                             581F8 
5672561 0b10101101000111001110001                         568E71
916583  0b11011111110001100111                            DFC67 
2700138 0b1010010011001101101010                          29336A
9645053 0b100100110010101111111101                        932BFD
1181110 0b100100000010110110110                           1205B6
1492185 0b101101100010011011001                           16C4D9
4018595 0b1111010101000110100011                          3D51A3
7654888 0b11101001100110111101000                         74CDE8
7062453 0b11010111100001110110101                         6BC3B5
2478010 0b1001011100111110111010                          25CFBA
6134768 0b10111011001101111110000                         5D9BF0
8420417 0b100000000111110001000001                        807C41
2917489 0b1011001000010001110001                          2C8471
3340773 0b1100101111100111100101                          32F9E5
1115956 0b100010000011100110100                           110734
9172192 0b100010111111010011100000                        8BF4E0
6271996 0b10111111011001111111100                         5FB3FC
8686939 0b100001001000110101011011                        848D5B
50986   0b1100011100101010                                C72A  
9376410 0b100011110001001010011010                        8F129A
5962327 0b10110101111101001010111                         5AFA57
7686891 0b11101010100101011101011                         754AEB
6615183 0b11001001111000010001111                         64F08F
1864844 0b111000111010010001100                           1C748C
3329962 0b1100101100111110101010                          32CFAA
3942794 0b1111000010100110001010                          3C298A
2614836 0b1001111110011000110100                          27E634
7406772 0b11100010000010010110100                         7104B4
2384190 0b1001000110000100111110                          24613E
398347  0b1100001010000001011                             6140B 
8698503 0b100001001011101010000111                        84BA87
9551696 0b100100011011111101010000                        91BF50
1019556 0b11111000111010100100                            F8EA4 
1677430 0b110011001100001110110                           199876
3479629 0b1101010001100001001101                          35184D
9309008 0b100011100000101101010000                        8E0B50
5266170 0b10100000101101011111010                         505AFA
4094340 0b1111100111100110000100                          3E7984
1754055 0b110101100001111000111                           1AC3C7
5861132 0b10110010110111100001100                         596F0C
4471329 0b10001000011101000100001                         443A21
8826052 0b100001101010110011000100                        86ACC4
7469325 0b11100011111100100001101                         71F90D
1973172 0b111100001101110110100                           1E1BB4
53145   0b1100111110011001                                CF99  
3897508 0b1110110111100010100100                          3B78A4
7773386 0b11101101001110011001010                         769CCA
6089829 0b10111001110110001100101                         5CEC65
4223424 0b10000000111000111000000                         4071C0
9761752 0b100101001111001111011000                        94F3D8
7930799 0b11110010000001110101111                         7903AF
3597495 0b1101101110010010110111                          36E4B7
9302948 0b100011011111001110100100                        8DF3A4
2288712 0b1000101110110001001000                          22EC48
197187  0b110000001001000011                              30243 
5266939 0b10100000101110111111011                         505DFB
221545  0b110110000101101001                              36169 
7957027 0b11110010110101000100011                         796A23
3195361 0b1100001100000111100001                          30C1E1
7106269 0b11011000110111011011101                         6C6EDD
9633312 0b100100101111111000100000                        92FE20
9713704 0b100101000011100000101000                        943828
91925   0b10110011100010101                               16715 
4418686 0b10000110110110001111110                         436C7E
9682250 0b100100111011110101001010                        93BD4A
2583824 0b1001110110110100010000                          276D10
4979126 0b10010111111100110110110                         4BF9B6
6280954 0b10111111101011011111010                         5FD6FA
1228610 0b100101011111101000010                           12BF42
705518  0b10101100001111101110                            AC3EE 
1017653 0b11111000011100110101                            F8735 
500098  0b1111010000110000010                             7A182 
7210727 0b11011100000011011100111                         6E06E7
4250898 0b10000001101110100010010                         40DD12
4055028 0b1111011101111111110100                          3DDFF4
2754240 0b1010100000011011000000                          2A06C0
452999  0b1101110100110000111                             6E987 
6831458 0b11010000011110101100010                         683D62
207636  0b110010101100010100                              32B14 
7280635 0b11011110001011111111011                         6F17FB
3308937 0b1100100111110110001001                          327D89
4303570 0b10000011010101011010010                         41AAD2
8375055 0b11111111100101100001111                         7FCB0F
1457960 0b101100011111100101000                           163F28
5197625 0b10011110100111100111001                         4F4F39
3144371 0b1011111111101010110011                          2FFAB3
6674138 0b11001011101011011011010                         65D6DA
2692106 0b1010010001010000001010                          29140A
2276769 0b1000101011110110100001                          22BDA1
1940971 0b111011001110111101011                           1D9DEB
3288264 0b1100100010110011001000                          322CC8
4819803 0b10010011000101101011011                         498B5B
9431005 0b100011111110011111011101                        8FE7DD
3992019 0b1111001110100111010011                          3CE9D3
8184782 0b11111001110001111001110                         7CE3CE
2847975 0b1010110111010011100111                          2B74E7
7891025 0b11110000110100001010001                         786851
900082  0b11011011101111110010                            DBBF2 
1831532 0b110111111001001101100                           1BF26C
8428253 0b100000001001101011011101                        809ADD
2905752 0b1011000101011010011000                          2C5698
9763121 0b100101001111100100110001                        94F931
257890  0b111110111101100010                              3EF62 
4699761 0b10001111011011001110001                         47B671
359541  0b1010111110001110101                             57C75 
3446150 0b1101001001010110000110                          349586
4246818 0b10000001100110100100010                         40CD22
1848840 0b111000011011000001000                           1C3608
938480  0b11100101000111110000                            E51F0 
227465  0b110111100010001001                              37889 
3923488 0b1110111101111000100000                          3BDE20
8915697 0b100010000000101011110001                        880AF1
4309094 0b10000011100000001100110                         41C066
3891251 0b1110110110000000110011                          3B6033
8627956 0b100000111010011011110100                        83A6F4
5884613 0b10110011100101011000101                         59CAC5
1659318 0b110010101000110110110                           1951B6
1834855 0b110111111111101100111                           1BFF67
3386751 0b1100111010110101111111                          33AD7F
3000166 0b1011011100011101100110                          2DC766
9135626 0b100010110110011000001010                        8B660A
4869260 0b10010100100110010001100                         4A4C8C
76550   0b10010101100000110                               12B06 
432271  0b1101001100010001111                             6988F 
251028  0b111101010010010100                              3D494 
7016218 0b11010110000111100011010                         6B0F1A
6896099 0b11010010011100111100011                         6939E3
8386350 0b11111111111011100101110                         7FF72E
8637147 0b100000111100101011011011                        83CADB
936705  0b11100100101100000001                            E4B01 
6602175 0b11001001011110110111111                         64BDBF
1429181 0b101011100111010111101                           15CEBD
8395138 0b100000000001100110000010                        801982
6132809 0b10111011001010001001001                         5D9449
5936917 0b10110101001011100010101                         5A9715
2878578 0b1010111110110001110010                          2BEC72
158885  0b100110110010100101                              26CA5 
2441957 0b1001010100001011100101                          2542E5
5914794 0b10110100100000010101010                         5A40AA
3999272 0b1111010000011000101000                          3D0628
3142897 0b1011111111010011110001                          2FF4F1
8151159 0b11111000110000001110111                         7C6077
5147564 0b10011101000101110101100                         4E8BAC
4595374 0b10001100001111010101110                         461EAE
4234951 0b10000001001111011000111                         409EC7
7880605 0b11110000011111110011101                         783F9D
7009921 0b11010101111011010000001                         6AF681
695580  0b10101001110100011100                            A9D1C 
7370443 0b11100000111011011001011                         7076CB
7921729 0b11110001110000001000001                         78E041
8419625 0b100000000111100100101001                        807929
7024080 0b11010110010110111010000                         6B2DD0
3905988 0b1110111001100111000100                          3B99C4
1767599 0b110101111100010101111                           1AF8AF
935136  0b11100100010011100000                            E44E0 
635788  0b10011011001110001100                            9B38C 
8807719 0b100001100110010100100111                        866527
317375  0b1001101011110111111                             4D7BF 
9975410 0b100110000011011001110010                        983672
2727968 0b1010011010000000100000                          29A020
7444399 0b11100011001011110101111                         7197AF
4065675 0b1111100000100110001011                          3E098B
9925720 0b100101110111010001011000                        977458
2293633 0b1000101111111110000001                          22FF81
7734826 0b11101100000011000101010                         76062A
1065463 0b100000100000111110111                           1041F7
1105617 0b100001101111011010001                           10DED1
5325800 0b10100010100001111101000                         5143E8
3822527 0b1110100101001110111111                          3A53BF
5503858 0b10100111111101101110010                         53FB72
9214055 0b100011001001100001100111                        8C9867
6521769 0b11000111000001110101001                         6383A9
7923796 0b11110001110100001010100                         78E854
5250236 0b10100000001110010111100                         501CBC
1083154 0b100001000011100010010                           108712
472141  0b1110011010001001101                             7344D 
9597454 0b100100100111001000001110                        92720E
1581679 0b110000010001001101111                           18226F
656751  0b10100000010101101111                            A056F 
345464  0b1010100010101111000                             54578 
4281218 0b10000010101001110000010                         415382
6558883 0b11001000001010010100011                         6414A3
3852986 0b1110101100101010111010                          3ACABA
6263187 0b10111111001000110010011                         5F9193
5828308 0b10110001110111011010100                         58EED4
8058535 0b11110101111011010100111                         7AF6A7
9035191 0b100010011101110110110111                        89DDB7
7922103 0b11110001110000110110111                         78E1B7
9366003 0b100011101110100111110011                        8EE9F3
4555717 0b10001011000001111000101                         4583C5
3526753 0b1101011101000001100001                          35D061
3176815 0b1100000111100101101111                          30796F
858440  0b11010001100101001000                            D1948 
2250854 0b1000100101100001100110                          225866
Elapsed Time: 0.00 seconds
