Number  Binary                     Hexadecimal
7116776 0b11011001001011111101000  6C97E8
1666340 0b110010110110100100100    196D24
8886983 0b100001111001101011000111 879AC7
839365  0b11001100111011000101     CCEC5 
924280  0b11100001101001111000     E1A78 
1026310 0b11111010100100000110     FA906 
1615293 0b110001010010110111101    18A5BD
1063875 0b100000011101111000011    103BC3
679035  0b10100101110001111011     A5C7B 
5201970 0b10011110110000000110010  4F6032
593979  0b10010001000000111011     9103B 
801371  0b11000011101001011011     C3A5B 
3796878 0b1110011110111110001110   39EF8E
7489201 0b11100100100011010110001  7246B1
9740020 0b100101001001111011110100 949EF4
9128737 0b100010110100101100100001 8B4B21
5473463 0b10100111000010010110111  5384B7
8701957 0b100001001100100000000101 84C805
8238050 0b11111011011001111100010  7DB3E2
8679038 0b100001000110111001111110 846E7E
385912  0b1011110001101111000      5E378 
5867340 0b10110011000011101001100  59874C
4894542 0b10010101010111101001110  4AAF4E
8999451 0b100010010101001000011011 89521B
4392535 0b10000110000011001010111  430657
2078131 0b111111011010110110011    1FB5B3
3070124 0b1011101101100010101100   2ED8AC
7451998 0b11100011011010101011110  71B55E
5635510 0b10101011111110110110110  55FDB6
1233932 0b100101101010000001100    12D40C
6089867 0b10111001110110010001011  5CEC8B
1792316 0b110110101100100111100    1B593C
6298637 0b11000000001110000001101  601C0D
2408038 0b1001001011111001100110   24BE66
8510100 0b100000011101101010010100 81DA94
991581  0b11110010000101011101     F215D 
6455739 0b11000101000000110111011  6281BB
7829175 0b11101110111011010110111  7776B7
6328931 0b11000001001001001100011  609263
9982305 0b100110000101000101100001 985161
2292022 0b1000101111100100110110   22F936
1070496 0b100000101010110100000    1055A0
8518360 0b100000011111101011011000 81FAD8
6378470 0b11000010101001111100110  6153E6
7756258 0b11101100101100111100010  7659E2
7111767 0b11011001000010001010111  6C8457
2685897 0b1010001111101111001001   28FBC9
617946  0b10010110110111011010     96DDA 
246280  0b111100001000001000       3C208 
6075442 0b10111001011010000110010  5CB432
991323  0b11110010000001011011     F205B 
6754202 0b11001110000111110011010  670F9A
3103178 0b1011110101100111001010   2F59CA
3228842 0b1100010100010010101010   3144AA
6786623 0b11001111000111000111111  678E3F
5329085 0b10100010101000010111101  5150BD
2334647 0b1000111001111110110111   239FB7
7253396 0b11011101010110110010100  6EAD94
6516953 0b11000110111000011011001  6370D9
5972725 0b10110110010001011110101  5B22F5
5828037 0b10110001110110111000101  58EDC5
6642265 0b11001010101101001011001  655A59
2559699 0b1001110000111011010011   270ED3
6597631 0b11001001010101111111111  64ABFF
5826202 0b10110001110011010011010  58E69A
4642335 0b10001101101011000011111  46D61F
1862900 0b111000110110011110100    1C6CF4
6039635 0b10111000010100001010011  5C2853
3358744 0b1100110100000000011000   334018
4965249 0b10010111100001110000001  4BC381
6621475 0b11001010000100100100011  650923
3336153 0b1100101110011111011001   32E7D9
1044743 0b11111111000100000111     FF107 
6201477 0b10111101010000010000101  5EA085
6297100 0b11000000001011000001100  60160C
885678  0b11011000001110101110     D83AE 
8546891 0b100000100110101001001011 826A4B
6683923 0b11001011111110100010011  65FD13
7064472 0b11010111100101110011000  6BCB98
3430021 0b1101000101011010000101   345685
9764122 0b100101001111110100011010 94FD1A
9958605 0b100101111111010011001101 97F4CD
1006022 0b11110101100111000110     F59C6 
5276496 0b10100001000001101010000  508350
8876232 0b100001110111000011001000 8770C8
3364648 0b1100110101011100101000   335728
3539979 0b1101100000010000001011   36040B
3003857 0b1011011101010111010001   2DD5D1
4481634 0b10001000110001001100010  446262
9035781 0b100010011110000000000101 89E005
3767021 0b1110010111101011101101   397AED
4993901 0b10011000011001101101101  4C336D
8698377 0b100001001011101000001001 84BA09
4626501 0b10001101001100001000101  469845
1755352 0b110101100100011011000    1AC8D8
2755340 0b1010100000101100001100   2A0B0C
5150616 0b10011101001011110011000  4E9798
9345169 0b100011101001100010010001 8E9891
848948  0b11001111010000110100     CF434 
2708748 0b1010010101010100001100   29550C
8372451 0b11111111100000011100011  7FC0E3
3523015 0b1101011100000111000111   35C1C7
2624283 0b1010000000101100011011   280B1B
8795348 0b100001100011010011010100 8634D4
2318100 0b1000110101111100010100   235F14
4750861 0b10010000111111000001101  487E0D
3770597 0b1110011000100011100101   3988E5
1053352 0b100000001001010101000    1012A8
833307  0b11001011011100011011     CB71B 
4632526 0b10001101010111111001110  46AFCE
2212917 0b1000011100010000110101   21C435
5053189 0b10011010001101100000101  4D1B05
412218  0b1100100101000111010      64A3A 
4901564 0b10010101100101010111100  4ACABC
5094606 0b10011011011110011001110  4DBCCE
8070285 0b11110110010010010001101  7B248D
6847905 0b11010000111110110100001  687DA1
4311824 0b10000011100101100010000  41CB10
3009421 0b1011011110101110001101   2DEB8D
1629105 0b110001101101110110001    18DBB1
8431899 0b100000001010100100011011 80A91B
7582456 0b11100111011001011111000  73B2F8
7332147 0b11011111110000100110011  6FE133
314183  0b1001100101101000111      4CB47 
7632568 0b11101000111011010111000  7476B8
8161327 0b11111001000100000101111  7C882F
6961087 0b11010100011011110111111  6A37BF
6898282 0b11010010100001001101010  69426A
9749303 0b100101001100001100110111 94C337
4427419 0b10000111000111010011011  438E9B
4368829 0b10000101010100110111101  42A9BD
6439318 0b11000100100000110010110  624196
6473603 0b11000101100011110000011  62C783
6446249 0b11000100101110010101001  625CA9
9818836 0b100101011101001011010100 95D2D4
9438069 0b100100000000001101110101 900375
2809499 0b1010101101111010011011   2ADE9B
3460304 0b1101001100110011010000   34CCD0
8430904 0b100000001010010100111000 80A538
9774785 0b100101010010011011000001 9526C1
9560603 0b100100011110001000011011 91E21B
3440732 0b1101001000000001011100   34805C
7053263 0b11010111001111111001111  6B9FCF
287398  0b1000110001010100110      462A6 
4043644 0b1111011011001101111100   3DB37C
2943820 0b1011001110101101001100   2CEB4C
9030962 0b100010011100110100110010 89CD32
7537540 0b11100110000001110000100  730384
7203657 0b11011011110101101001001  6DEB49
5639400 0b10101100000110011101000  560CE8
9448142 0b100100000010101011001110 902ACE
9954392 0b100101111110010001011000 97E458
2856859 0b1010111001011110011011   2B979B
1332118 0b101000101001110010110    145396
6984725 0b11010101001010000010101  6A9415
1925762 0b111010110001010000010    1D6282
2138171 0b1000001010000000111011   20A03B
347447  0b1010100110100110111      54D37 
8839390 0b100001101110000011011110 86E0DE
3951652 0b1111000100110000100100   3C4C24
3755102 0b1110010100110001011110   394C5E
6867687 0b11010001100101011100111  68CAE7
4383175 0b10000101110000111000111  42E1C7
7125508 0b11011001011101000000100  6CBA04
7799732 0b11101110000001110110100  7703B4
8784156 0b100001100000100100011100 86091C
1372809 0b101001111001010001001    14F289
1327984 0b101000100001101110000    144370
9205087 0b100011000111010101011111 8C755F
6524241 0b11000111000110101010001  638D51
9316072 0b100011100010011011101000 8E26E8
127744  0b11111001100000000        1F300 
8388820 0b100000000000000011010100 8000D4
6883557 0b11010010000100011100101  6908E5
2291239 0b1000101111011000100111   22F627
3101270 0b1011110101001001010110   2F5256
1382825 0b101010001100110101001    1519A9
9873376 0b100101101010011111100000 96A7E0
6873500 0b11010001110000110011100  68E19C
8185634 0b11111001110011100100010  7CE722
2464786 0b1001011001110000010010   259C12
8387154 0b11111111111101001010010  7FFA52
5581444 0b10101010010101010000100  552A84
8097911 0b11110111001000001110111  7B9077
8882527 0b100001111000100101011111 87895F
8941444 0b100010000110111110000100 886F84
4942703 0b10010110110101101101111  4B6B6F
101144  0b11000101100011000        18B18 
7471180 0b11100100000000001001100  72004C
1932131 0b111010111101101100011    1D7B63
8052752 0b11110101110000000010000  7AE010
6359493 0b11000010000100111000101  6109C5
1967646 0b111100000011000011110    1E061E
6575052 0b11001000101001111001100  6453CC
2323342 0b1000110111001110001110   23738E
6735760 0b11001101100011110010000  66C790
8895858 0b100001111011110101110010 87BD72
4238091 0b10000001010101100001011  40AB0B
7093069 0b11011000011101101001101  6C3B4D
39      0b100111                   27    
Elapsed Time: 0.00 seconds
